{
	"1.5 SimpleStorage  - Memory Storage and Calldata.sol": {
		"SimpleStorage": {
			"abi": [
				{
					"inputs": [
						{
							"internalType": "string",
							"name": "_name",
							"type": "string"
						},
						{
							"internalType": "uint256",
							"name": "_favoriteNumber",
							"type": "uint256"
						}
					],
					"name": "addPerson",
					"outputs": [],
					"stateMutability": "nonpayable",
					"type": "function"
				},
				{
					"inputs": [
						{
							"internalType": "uint256",
							"name": "",
							"type": "uint256"
						}
					],
					"name": "listOfPeople",
					"outputs": [
						{
							"internalType": "uint256",
							"name": "favoriteNumber",
							"type": "uint256"
						},
						{
							"internalType": "string",
							"name": "name",
							"type": "string"
						}
					],
					"stateMutability": "view",
					"type": "function"
				},
				{
					"inputs": [],
					"name": "retrieve",
					"outputs": [
						{
							"internalType": "uint256",
							"name": "",
							"type": "uint256"
						}
					],
					"stateMutability": "view",
					"type": "function"
				},
				{
					"inputs": [
						{
							"internalType": "uint256",
							"name": "_favoriteNumber",
							"type": "uint256"
						}
					],
					"name": "store",
					"outputs": [],
					"stateMutability": "nonpayable",
					"type": "function"
				}
			],
			"devdoc": {
				"kind": "dev",
				"methods": {},
				"version": 1
			},
			"evm": {
				"assembly": "    /* \"1.5 SimpleStorage  - Memory Storage and Calldata.sol\":143:2746  contract SimpleStorage {... */\n  mstore(0x40, 0x80)\n  callvalue\n  dup1\n  iszero\n  tag_1\n  jumpi\n  0x00\n  dup1\n  revert\ntag_1:\n  pop\n  dataSize(sub_0)\n  dup1\n  dataOffset(sub_0)\n  0x00\n  codecopy\n  0x00\n  return\nstop\n\nsub_0: assembly {\n        /* \"1.5 SimpleStorage  - Memory Storage and Calldata.sol\":143:2746  contract SimpleStorage {... */\n      mstore(0x40, 0x80)\n      callvalue\n      dup1\n      iszero\n      tag_1\n      jumpi\n      0x00\n      dup1\n      revert\n    tag_1:\n      pop\n      jumpi(tag_2, lt(calldatasize, 0x04))\n      shr(0xe0, calldataload(0x00))\n      dup1\n      0x2e64cec1\n      eq\n      tag_3\n      jumpi\n      dup1\n      0x2ebce631\n      eq\n      tag_4\n      jumpi\n      dup1\n      0x6057361d\n      eq\n      tag_5\n      jumpi\n      dup1\n      0x6f760f41\n      eq\n      tag_6\n      jumpi\n    tag_2:\n      0x00\n      dup1\n      revert\n        /* \"1.5 SimpleStorage  - Memory Storage and Calldata.sol\":1181:1272  function retrieve() public view returns(uint256){... */\n    tag_3:\n      tag_7\n      tag_8\n      jump\t// in\n    tag_7:\n      mload(0x40)\n      tag_9\n      swap2\n      swap1\n      tag_10\n      jump\t// in\n    tag_9:\n      mload(0x40)\n      dup1\n      swap2\n      sub\n      swap1\n      return\n        /* \"1.5 SimpleStorage  - Memory Storage and Calldata.sol\":1025:1053  Person[] public listOfPeople */\n    tag_4:\n      tag_11\n      0x04\n      dup1\n      calldatasize\n      sub\n      dup2\n      add\n      swap1\n      tag_12\n      swap2\n      swap1\n      tag_13\n      jump\t// in\n    tag_12:\n      tag_14\n      jump\t// in\n    tag_11:\n      mload(0x40)\n      tag_15\n      swap3\n      swap2\n      swap1\n      tag_16\n      jump\t// in\n    tag_15:\n      mload(0x40)\n      dup1\n      swap2\n      sub\n      swap1\n      return\n        /* \"1.5 SimpleStorage  - Memory Storage and Calldata.sol\":1067:1167  function store(uint256 _favoriteNumber) public {... */\n    tag_5:\n      tag_17\n      0x04\n      dup1\n      calldatasize\n      sub\n      dup2\n      add\n      swap1\n      tag_18\n      swap2\n      swap1\n      tag_13\n      jump\t// in\n    tag_18:\n      tag_19\n      jump\t// in\n    tag_17:\n      stop\n        /* \"1.5 SimpleStorage  - Memory Storage and Calldata.sol\":1281:2741  function addPerson(string memory _name, uint256 _favoriteNumber) public {... */\n    tag_6:\n      tag_20\n      0x04\n      dup1\n      calldatasize\n      sub\n      dup2\n      add\n      swap1\n      tag_21\n      swap2\n      swap1\n      tag_22\n      jump\t// in\n    tag_21:\n      tag_23\n      jump\t// in\n    tag_20:\n      stop\n        /* \"1.5 SimpleStorage  - Memory Storage and Calldata.sol\":1181:1272  function retrieve() public view returns(uint256){... */\n    tag_8:\n        /* \"1.5 SimpleStorage  - Memory Storage and Calldata.sol\":1221:1228  uint256 */\n      0x00\n        /* \"1.5 SimpleStorage  - Memory Storage and Calldata.sol\":1247:1263  myFavoriteNumber */\n      dup1\n      sload\n        /* \"1.5 SimpleStorage  - Memory Storage and Calldata.sol\":1240:1263  return myFavoriteNumber */\n      swap1\n      pop\n        /* \"1.5 SimpleStorage  - Memory Storage and Calldata.sol\":1181:1272  function retrieve() public view returns(uint256){... */\n      swap1\n      jump\t// out\n        /* \"1.5 SimpleStorage  - Memory Storage and Calldata.sol\":1025:1053  Person[] public listOfPeople */\n    tag_14:\n      0x01\n      dup2\n      dup2\n      sload\n      dup2\n      lt\n      tag_25\n      jumpi\n      0x00\n      dup1\n      revert\n    tag_25:\n      swap1\n      0x00\n      mstore\n      keccak256(0x00, 0x20)\n      swap1\n      0x02\n      mul\n      add\n      0x00\n      swap2\n      pop\n      swap1\n      pop\n      dup1\n      0x00\n      add\n      sload\n      swap1\n      dup1\n      0x01\n      add\n      dup1\n      sload\n      tag_27\n      swap1\n      tag_28\n      jump\t// in\n    tag_27:\n      dup1\n      0x1f\n      add\n      0x20\n      dup1\n      swap2\n      div\n      mul\n      0x20\n      add\n      mload(0x40)\n      swap1\n      dup2\n      add\n      0x40\n      mstore\n      dup1\n      swap3\n      swap2\n      swap1\n      dup2\n      dup2\n      mstore\n      0x20\n      add\n      dup3\n      dup1\n      sload\n      tag_29\n      swap1\n      tag_28\n      jump\t// in\n    tag_29:\n      dup1\n      iszero\n      tag_30\n      jumpi\n      dup1\n      0x1f\n      lt\n      tag_31\n      jumpi\n      0x0100\n      dup1\n      dup4\n      sload\n      div\n      mul\n      dup4\n      mstore\n      swap2\n      0x20\n      add\n      swap2\n      jump(tag_30)\n    tag_31:\n      dup3\n      add\n      swap2\n      swap1\n      0x00\n      mstore\n      keccak256(0x00, 0x20)\n      swap1\n    tag_32:\n      dup2\n      sload\n      dup2\n      mstore\n      swap1\n      0x01\n      add\n      swap1\n      0x20\n      add\n      dup1\n      dup4\n      gt\n      tag_32\n      jumpi\n      dup3\n      swap1\n      sub\n      0x1f\n      and\n      dup3\n      add\n      swap2\n    tag_30:\n      pop\n      pop\n      pop\n      pop\n      pop\n      swap1\n      pop\n      dup3\n      jump\t// out\n        /* \"1.5 SimpleStorage  - Memory Storage and Calldata.sol\":1067:1167  function store(uint256 _favoriteNumber) public {... */\n    tag_19:\n        /* \"1.5 SimpleStorage  - Memory Storage and Calldata.sol\":1144:1159  _favoriteNumber */\n      dup1\n        /* \"1.5 SimpleStorage  - Memory Storage and Calldata.sol\":1125:1141  myFavoriteNumber */\n      0x00\n        /* \"1.5 SimpleStorage  - Memory Storage and Calldata.sol\":1125:1159  myFavoriteNumber = _favoriteNumber */\n      dup2\n      swap1\n      sstore\n      pop\n        /* \"1.5 SimpleStorage  - Memory Storage and Calldata.sol\":1067:1167  function store(uint256 _favoriteNumber) public {... */\n      pop\n      jump\t// out\n        /* \"1.5 SimpleStorage  - Memory Storage and Calldata.sol\":1281:2741  function addPerson(string memory _name, uint256 _favoriteNumber) public {... */\n    tag_23:\n        /* \"1.5 SimpleStorage  - Memory Storage and Calldata.sol\":1928:1940  listOfPeople */\n      0x01\n        /* \"1.5 SimpleStorage  - Memory Storage and Calldata.sol\":1947:1977  Person(_favoriteNumber, _name) */\n      mload(0x40)\n      dup1\n      0x40\n      add\n      0x40\n      mstore\n      dup1\n        /* \"1.5 SimpleStorage  - Memory Storage and Calldata.sol\":1954:1969  _favoriteNumber */\n      dup4\n        /* \"1.5 SimpleStorage  - Memory Storage and Calldata.sol\":1947:1977  Person(_favoriteNumber, _name) */\n      dup2\n      mstore\n      0x20\n      add\n        /* \"1.5 SimpleStorage  - Memory Storage and Calldata.sol\":1971:1976  _name */\n      dup5\n        /* \"1.5 SimpleStorage  - Memory Storage and Calldata.sol\":1947:1977  Person(_favoriteNumber, _name) */\n      dup2\n      mstore\n      pop\n        /* \"1.5 SimpleStorage  - Memory Storage and Calldata.sol\":1928:1979  listOfPeople.push( Person(_favoriteNumber, _name) ) */\n      swap1\n      dup1\n      0x01\n      dup2\n      sload\n      add\n      dup1\n      dup3\n      sstore\n      dup1\n      swap2\n      pop\n      pop\n      0x01\n      swap1\n      sub\n      swap1\n      0x00\n      mstore\n      keccak256(0x00, 0x20)\n      swap1\n      0x02\n      mul\n      add\n      0x00\n      swap1\n      swap2\n      swap1\n      swap2\n      swap1\n      swap2\n      pop\n      0x00\n      dup3\n      add\n      mload\n      dup2\n      0x00\n      add\n      sstore\n      0x20\n      dup3\n      add\n      mload\n      dup2\n      0x01\n      add\n      swap1\n      dup2\n      tag_36\n      swap2\n      swap1\n      tag_37\n      jump\t// in\n    tag_36:\n      pop\n      pop\n      pop\n        /* \"1.5 SimpleStorage  - Memory Storage and Calldata.sol\":1281:2741  function addPerson(string memory _name, uint256 _favoriteNumber) public {... */\n      pop\n      pop\n      jump\t// out\n        /* \"#utility.yul\":7:84   */\n    tag_38:\n        /* \"#utility.yul\":44:51   */\n      0x00\n        /* \"#utility.yul\":73:78   */\n      dup2\n        /* \"#utility.yul\":62:78   */\n      swap1\n      pop\n        /* \"#utility.yul\":7:84   */\n      swap2\n      swap1\n      pop\n      jump\t// out\n        /* \"#utility.yul\":90:208   */\n    tag_39:\n        /* \"#utility.yul\":177:201   */\n      tag_78\n        /* \"#utility.yul\":195:200   */\n      dup2\n        /* \"#utility.yul\":177:201   */\n      tag_38\n      jump\t// in\n    tag_78:\n        /* \"#utility.yul\":172:175   */\n      dup3\n        /* \"#utility.yul\":165:202   */\n      mstore\n        /* \"#utility.yul\":90:208   */\n      pop\n      pop\n      jump\t// out\n        /* \"#utility.yul\":214:436   */\n    tag_10:\n        /* \"#utility.yul\":307:311   */\n      0x00\n        /* \"#utility.yul\":345:347   */\n      0x20\n        /* \"#utility.yul\":334:343   */\n      dup3\n        /* \"#utility.yul\":330:348   */\n      add\n        /* \"#utility.yul\":322:348   */\n      swap1\n      pop\n        /* \"#utility.yul\":358:429   */\n      tag_80\n        /* \"#utility.yul\":426:427   */\n      0x00\n        /* \"#utility.yul\":415:424   */\n      dup4\n        /* \"#utility.yul\":411:428   */\n      add\n        /* \"#utility.yul\":402:408   */\n      dup5\n        /* \"#utility.yul\":358:429   */\n      tag_39\n      jump\t// in\n    tag_80:\n        /* \"#utility.yul\":214:436   */\n      swap3\n      swap2\n      pop\n      pop\n      jump\t// out\n        /* \"#utility.yul\":442:517   */\n    tag_40:\n        /* \"#utility.yul\":475:481   */\n      0x00\n        /* \"#utility.yul\":508:510   */\n      0x40\n        /* \"#utility.yul\":502:511   */\n      mload\n        /* \"#utility.yul\":492:511   */\n      swap1\n      pop\n        /* \"#utility.yul\":442:517   */\n      swap1\n      jump\t// out\n        /* \"#utility.yul\":523:640   */\n    tag_41:\n        /* \"#utility.yul\":632:633   */\n      0x00\n        /* \"#utility.yul\":629:630   */\n      dup1\n        /* \"#utility.yul\":622:634   */\n      revert\n        /* \"#utility.yul\":646:763   */\n    tag_42:\n        /* \"#utility.yul\":755:756   */\n      0x00\n        /* \"#utility.yul\":752:753   */\n      dup1\n        /* \"#utility.yul\":745:757   */\n      revert\n        /* \"#utility.yul\":769:891   */\n    tag_43:\n        /* \"#utility.yul\":842:866   */\n      tag_85\n        /* \"#utility.yul\":860:865   */\n      dup2\n        /* \"#utility.yul\":842:866   */\n      tag_38\n      jump\t// in\n    tag_85:\n        /* \"#utility.yul\":835:840   */\n      dup2\n        /* \"#utility.yul\":832:867   */\n      eq\n        /* \"#utility.yul\":822:885   */\n      tag_86\n      jumpi\n        /* \"#utility.yul\":881:882   */\n      0x00\n        /* \"#utility.yul\":878:879   */\n      dup1\n        /* \"#utility.yul\":871:883   */\n      revert\n        /* \"#utility.yul\":822:885   */\n    tag_86:\n        /* \"#utility.yul\":769:891   */\n      pop\n      jump\t// out\n        /* \"#utility.yul\":897:1036   */\n    tag_44:\n        /* \"#utility.yul\":943:948   */\n      0x00\n        /* \"#utility.yul\":981:987   */\n      dup2\n        /* \"#utility.yul\":968:988   */\n      calldataload\n        /* \"#utility.yul\":959:988   */\n      swap1\n      pop\n        /* \"#utility.yul\":997:1030   */\n      tag_88\n        /* \"#utility.yul\":1024:1029   */\n      dup2\n        /* \"#utility.yul\":997:1030   */\n      tag_43\n      jump\t// in\n    tag_88:\n        /* \"#utility.yul\":897:1036   */\n      swap3\n      swap2\n      pop\n      pop\n      jump\t// out\n        /* \"#utility.yul\":1042:1371   */\n    tag_13:\n        /* \"#utility.yul\":1101:1107   */\n      0x00\n        /* \"#utility.yul\":1150:1152   */\n      0x20\n        /* \"#utility.yul\":1138:1147   */\n      dup3\n        /* \"#utility.yul\":1129:1136   */\n      dup5\n        /* \"#utility.yul\":1125:1148   */\n      sub\n        /* \"#utility.yul\":1121:1153   */\n      slt\n        /* \"#utility.yul\":1118:1237   */\n      iszero\n      tag_90\n      jumpi\n        /* \"#utility.yul\":1156:1235   */\n      tag_91\n      tag_41\n      jump\t// in\n    tag_91:\n        /* \"#utility.yul\":1118:1237   */\n    tag_90:\n        /* \"#utility.yul\":1276:1277   */\n      0x00\n        /* \"#utility.yul\":1301:1354   */\n      tag_92\n        /* \"#utility.yul\":1346:1353   */\n      dup5\n        /* \"#utility.yul\":1337:1343   */\n      dup3\n        /* \"#utility.yul\":1326:1335   */\n      dup6\n        /* \"#utility.yul\":1322:1344   */\n      add\n        /* \"#utility.yul\":1301:1354   */\n      tag_44\n      jump\t// in\n    tag_92:\n        /* \"#utility.yul\":1291:1354   */\n      swap2\n      pop\n        /* \"#utility.yul\":1247:1364   */\n      pop\n        /* \"#utility.yul\":1042:1371   */\n      swap3\n      swap2\n      pop\n      pop\n      jump\t// out\n        /* \"#utility.yul\":1377:1476   */\n    tag_45:\n        /* \"#utility.yul\":1429:1435   */\n      0x00\n        /* \"#utility.yul\":1463:1468   */\n      dup2\n        /* \"#utility.yul\":1457:1469   */\n      mload\n        /* \"#utility.yul\":1447:1469   */\n      swap1\n      pop\n        /* \"#utility.yul\":1377:1476   */\n      swap2\n      swap1\n      pop\n      jump\t// out\n        /* \"#utility.yul\":1482:1651   */\n    tag_46:\n        /* \"#utility.yul\":1566:1577   */\n      0x00\n        /* \"#utility.yul\":1600:1606   */\n      dup3\n        /* \"#utility.yul\":1595:1598   */\n      dup3\n        /* \"#utility.yul\":1588:1607   */\n      mstore\n        /* \"#utility.yul\":1640:1644   */\n      0x20\n        /* \"#utility.yul\":1635:1638   */\n      dup3\n        /* \"#utility.yul\":1631:1645   */\n      add\n        /* \"#utility.yul\":1616:1645   */\n      swap1\n      pop\n        /* \"#utility.yul\":1482:1651   */\n      swap3\n      swap2\n      pop\n      pop\n      jump\t// out\n        /* \"#utility.yul\":1657:1903   */\n    tag_47:\n        /* \"#utility.yul\":1738:1739   */\n      0x00\n        /* \"#utility.yul\":1748:1861   */\n    tag_96:\n        /* \"#utility.yul\":1762:1768   */\n      dup4\n        /* \"#utility.yul\":1759:1760   */\n      dup2\n        /* \"#utility.yul\":1756:1769   */\n      lt\n        /* \"#utility.yul\":1748:1861   */\n      iszero\n      tag_98\n      jumpi\n        /* \"#utility.yul\":1847:1848   */\n      dup1\n        /* \"#utility.yul\":1842:1845   */\n      dup3\n        /* \"#utility.yul\":1838:1849   */\n      add\n        /* \"#utility.yul\":1832:1850   */\n      mload\n        /* \"#utility.yul\":1828:1829   */\n      dup2\n        /* \"#utility.yul\":1823:1826   */\n      dup5\n        /* \"#utility.yul\":1819:1830   */\n      add\n        /* \"#utility.yul\":1812:1851   */\n      mstore\n        /* \"#utility.yul\":1784:1786   */\n      0x20\n        /* \"#utility.yul\":1781:1782   */\n      dup2\n        /* \"#utility.yul\":1777:1787   */\n      add\n        /* \"#utility.yul\":1772:1787   */\n      swap1\n      pop\n        /* \"#utility.yul\":1748:1861   */\n      jump(tag_96)\n    tag_98:\n        /* \"#utility.yul\":1895:1896   */\n      0x00\n        /* \"#utility.yul\":1886:1892   */\n      dup5\n        /* \"#utility.yul\":1881:1884   */\n      dup5\n        /* \"#utility.yul\":1877:1893   */\n      add\n        /* \"#utility.yul\":1870:1897   */\n      mstore\n        /* \"#utility.yul\":1719:1903   */\n      pop\n        /* \"#utility.yul\":1657:1903   */\n      pop\n      pop\n      pop\n      jump\t// out\n        /* \"#utility.yul\":1909:2011   */\n    tag_48:\n        /* \"#utility.yul\":1950:1956   */\n      0x00\n        /* \"#utility.yul\":2001:2003   */\n      0x1f\n        /* \"#utility.yul\":1997:2004   */\n      not\n        /* \"#utility.yul\":1992:1994   */\n      0x1f\n        /* \"#utility.yul\":1985:1990   */\n      dup4\n        /* \"#utility.yul\":1981:1995   */\n      add\n        /* \"#utility.yul\":1977:2005   */\n      and\n        /* \"#utility.yul\":1967:2005   */\n      swap1\n      pop\n        /* \"#utility.yul\":1909:2011   */\n      swap2\n      swap1\n      pop\n      jump\t// out\n        /* \"#utility.yul\":2017:2394   */\n    tag_49:\n        /* \"#utility.yul\":2105:2108   */\n      0x00\n        /* \"#utility.yul\":2133:2172   */\n      tag_101\n        /* \"#utility.yul\":2166:2171   */\n      dup3\n        /* \"#utility.yul\":2133:2172   */\n      tag_45\n      jump\t// in\n    tag_101:\n        /* \"#utility.yul\":2188:2259   */\n      tag_102\n        /* \"#utility.yul\":2252:2258   */\n      dup2\n        /* \"#utility.yul\":2247:2250   */\n      dup6\n        /* \"#utility.yul\":2188:2259   */\n      tag_46\n      jump\t// in\n    tag_102:\n        /* \"#utility.yul\":2181:2259   */\n      swap4\n      pop\n        /* \"#utility.yul\":2268:2333   */\n      tag_103\n        /* \"#utility.yul\":2326:2332   */\n      dup2\n        /* \"#utility.yul\":2321:2324   */\n      dup6\n        /* \"#utility.yul\":2314:2318   */\n      0x20\n        /* \"#utility.yul\":2307:2312   */\n      dup7\n        /* \"#utility.yul\":2303:2319   */\n      add\n        /* \"#utility.yul\":2268:2333   */\n      tag_47\n      jump\t// in\n    tag_103:\n        /* \"#utility.yul\":2358:2387   */\n      tag_104\n        /* \"#utility.yul\":2380:2386   */\n      dup2\n        /* \"#utility.yul\":2358:2387   */\n      tag_48\n      jump\t// in\n    tag_104:\n        /* \"#utility.yul\":2353:2356   */\n      dup5\n        /* \"#utility.yul\":2349:2388   */\n      add\n        /* \"#utility.yul\":2342:2388   */\n      swap2\n      pop\n        /* \"#utility.yul\":2109:2394   */\n      pop\n        /* \"#utility.yul\":2017:2394   */\n      swap3\n      swap2\n      pop\n      pop\n      jump\t// out\n        /* \"#utility.yul\":2400:2823   */\n    tag_16:\n        /* \"#utility.yul\":2541:2545   */\n      0x00\n        /* \"#utility.yul\":2579:2581   */\n      0x40\n        /* \"#utility.yul\":2568:2577   */\n      dup3\n        /* \"#utility.yul\":2564:2582   */\n      add\n        /* \"#utility.yul\":2556:2582   */\n      swap1\n      pop\n        /* \"#utility.yul\":2592:2663   */\n      tag_106\n        /* \"#utility.yul\":2660:2661   */\n      0x00\n        /* \"#utility.yul\":2649:2658   */\n      dup4\n        /* \"#utility.yul\":2645:2662   */\n      add\n        /* \"#utility.yul\":2636:2642   */\n      dup6\n        /* \"#utility.yul\":2592:2663   */\n      tag_39\n      jump\t// in\n    tag_106:\n        /* \"#utility.yul\":2710:2719   */\n      dup2\n        /* \"#utility.yul\":2704:2708   */\n      dup2\n        /* \"#utility.yul\":2700:2720   */\n      sub\n        /* \"#utility.yul\":2695:2697   */\n      0x20\n        /* \"#utility.yul\":2684:2693   */\n      dup4\n        /* \"#utility.yul\":2680:2698   */\n      add\n        /* \"#utility.yul\":2673:2721   */\n      mstore\n        /* \"#utility.yul\":2738:2816   */\n      tag_107\n        /* \"#utility.yul\":2811:2815   */\n      dup2\n        /* \"#utility.yul\":2802:2808   */\n      dup5\n        /* \"#utility.yul\":2738:2816   */\n      tag_49\n      jump\t// in\n    tag_107:\n        /* \"#utility.yul\":2730:2816   */\n      swap1\n      pop\n        /* \"#utility.yul\":2400:2823   */\n      swap4\n      swap3\n      pop\n      pop\n      pop\n      jump\t// out\n        /* \"#utility.yul\":2829:2946   */\n    tag_50:\n        /* \"#utility.yul\":2938:2939   */\n      0x00\n        /* \"#utility.yul\":2935:2936   */\n      dup1\n        /* \"#utility.yul\":2928:2940   */\n      revert\n        /* \"#utility.yul\":2952:3069   */\n    tag_51:\n        /* \"#utility.yul\":3061:3062   */\n      0x00\n        /* \"#utility.yul\":3058:3059   */\n      dup1\n        /* \"#utility.yul\":3051:3063   */\n      revert\n        /* \"#utility.yul\":3075:3255   */\n    tag_52:\n        /* \"#utility.yul\":3123:3200   */\n      0x4e487b7100000000000000000000000000000000000000000000000000000000\n        /* \"#utility.yul\":3120:3121   */\n      0x00\n        /* \"#utility.yul\":3113:3201   */\n      mstore\n        /* \"#utility.yul\":3220:3224   */\n      0x41\n        /* \"#utility.yul\":3217:3218   */\n      0x04\n        /* \"#utility.yul\":3210:3225   */\n      mstore\n        /* \"#utility.yul\":3244:3248   */\n      0x24\n        /* \"#utility.yul\":3241:3242   */\n      0x00\n        /* \"#utility.yul\":3234:3249   */\n      revert\n        /* \"#utility.yul\":3261:3542   */\n    tag_53:\n        /* \"#utility.yul\":3344:3371   */\n      tag_112\n        /* \"#utility.yul\":3366:3370   */\n      dup3\n        /* \"#utility.yul\":3344:3371   */\n      tag_48\n      jump\t// in\n    tag_112:\n        /* \"#utility.yul\":3336:3342   */\n      dup2\n        /* \"#utility.yul\":3332:3372   */\n      add\n        /* \"#utility.yul\":3474:3480   */\n      dup2\n        /* \"#utility.yul\":3462:3472   */\n      dup2\n        /* \"#utility.yul\":3459:3481   */\n      lt\n        /* \"#utility.yul\":3438:3456   */\n      0xffffffffffffffff\n        /* \"#utility.yul\":3426:3436   */\n      dup3\n        /* \"#utility.yul\":3423:3457   */\n      gt\n        /* \"#utility.yul\":3420:3482   */\n      or\n        /* \"#utility.yul\":3417:3505   */\n      iszero\n      tag_113\n      jumpi\n        /* \"#utility.yul\":3485:3503   */\n      tag_114\n      tag_52\n      jump\t// in\n    tag_114:\n        /* \"#utility.yul\":3417:3505   */\n    tag_113:\n        /* \"#utility.yul\":3525:3535   */\n      dup1\n        /* \"#utility.yul\":3521:3523   */\n      0x40\n        /* \"#utility.yul\":3514:3536   */\n      mstore\n        /* \"#utility.yul\":3304:3542   */\n      pop\n        /* \"#utility.yul\":3261:3542   */\n      pop\n      pop\n      jump\t// out\n        /* \"#utility.yul\":3548:3677   */\n    tag_54:\n        /* \"#utility.yul\":3582:3588   */\n      0x00\n        /* \"#utility.yul\":3609:3629   */\n      tag_116\n      tag_40\n      jump\t// in\n    tag_116:\n        /* \"#utility.yul\":3599:3629   */\n      swap1\n      pop\n        /* \"#utility.yul\":3638:3671   */\n      tag_117\n        /* \"#utility.yul\":3666:3670   */\n      dup3\n        /* \"#utility.yul\":3658:3664   */\n      dup3\n        /* \"#utility.yul\":3638:3671   */\n      tag_53\n      jump\t// in\n    tag_117:\n        /* \"#utility.yul\":3548:3677   */\n      swap2\n      swap1\n      pop\n      jump\t// out\n        /* \"#utility.yul\":3683:3991   */\n    tag_55:\n        /* \"#utility.yul\":3745:3749   */\n      0x00\n        /* \"#utility.yul\":3835:3853   */\n      0xffffffffffffffff\n        /* \"#utility.yul\":3827:3833   */\n      dup3\n        /* \"#utility.yul\":3824:3854   */\n      gt\n        /* \"#utility.yul\":3821:3877   */\n      iszero\n      tag_119\n      jumpi\n        /* \"#utility.yul\":3857:3875   */\n      tag_120\n      tag_52\n      jump\t// in\n    tag_120:\n        /* \"#utility.yul\":3821:3877   */\n    tag_119:\n        /* \"#utility.yul\":3895:3924   */\n      tag_121\n        /* \"#utility.yul\":3917:3923   */\n      dup3\n        /* \"#utility.yul\":3895:3924   */\n      tag_48\n      jump\t// in\n    tag_121:\n        /* \"#utility.yul\":3887:3924   */\n      swap1\n      pop\n        /* \"#utility.yul\":3979:3983   */\n      0x20\n        /* \"#utility.yul\":3973:3977   */\n      dup2\n        /* \"#utility.yul\":3969:3984   */\n      add\n        /* \"#utility.yul\":3961:3984   */\n      swap1\n      pop\n        /* \"#utility.yul\":3683:3991   */\n      swap2\n      swap1\n      pop\n      jump\t// out\n        /* \"#utility.yul\":3997:4143   */\n    tag_56:\n        /* \"#utility.yul\":4094:4100   */\n      dup3\n        /* \"#utility.yul\":4089:4092   */\n      dup2\n        /* \"#utility.yul\":4084:4087   */\n      dup4\n        /* \"#utility.yul\":4071:4101   */\n      calldatacopy\n        /* \"#utility.yul\":4135:4136   */\n      0x00\n        /* \"#utility.yul\":4126:4132   */\n      dup4\n        /* \"#utility.yul\":4121:4124   */\n      dup4\n        /* \"#utility.yul\":4117:4133   */\n      add\n        /* \"#utility.yul\":4110:4137   */\n      mstore\n        /* \"#utility.yul\":3997:4143   */\n      pop\n      pop\n      pop\n      jump\t// out\n        /* \"#utility.yul\":4149:4574   */\n    tag_57:\n        /* \"#utility.yul\":4227:4232   */\n      0x00\n        /* \"#utility.yul\":4252:4318   */\n      tag_124\n        /* \"#utility.yul\":4268:4317   */\n      tag_125\n        /* \"#utility.yul\":4310:4316   */\n      dup5\n        /* \"#utility.yul\":4268:4317   */\n      tag_55\n      jump\t// in\n    tag_125:\n        /* \"#utility.yul\":4252:4318   */\n      tag_54\n      jump\t// in\n    tag_124:\n        /* \"#utility.yul\":4243:4318   */\n      swap1\n      pop\n        /* \"#utility.yul\":4341:4347   */\n      dup3\n        /* \"#utility.yul\":4334:4339   */\n      dup2\n        /* \"#utility.yul\":4327:4348   */\n      mstore\n        /* \"#utility.yul\":4379:4383   */\n      0x20\n        /* \"#utility.yul\":4372:4377   */\n      dup2\n        /* \"#utility.yul\":4368:4384   */\n      add\n        /* \"#utility.yul\":4417:4420   */\n      dup5\n        /* \"#utility.yul\":4408:4414   */\n      dup5\n        /* \"#utility.yul\":4403:4406   */\n      dup5\n        /* \"#utility.yul\":4399:4415   */\n      add\n        /* \"#utility.yul\":4396:4421   */\n      gt\n        /* \"#utility.yul\":4393:4505   */\n      iszero\n      tag_126\n      jumpi\n        /* \"#utility.yul\":4424:4503   */\n      tag_127\n      tag_51\n      jump\t// in\n    tag_127:\n        /* \"#utility.yul\":4393:4505   */\n    tag_126:\n        /* \"#utility.yul\":4514:4568   */\n      tag_128\n        /* \"#utility.yul\":4561:4567   */\n      dup5\n        /* \"#utility.yul\":4556:4559   */\n      dup3\n        /* \"#utility.yul\":4551:4554   */\n      dup6\n        /* \"#utility.yul\":4514:4568   */\n      tag_56\n      jump\t// in\n    tag_128:\n        /* \"#utility.yul\":4233:4574   */\n      pop\n        /* \"#utility.yul\":4149:4574   */\n      swap4\n      swap3\n      pop\n      pop\n      pop\n      jump\t// out\n        /* \"#utility.yul\":4594:4934   */\n    tag_58:\n        /* \"#utility.yul\":4650:4655   */\n      0x00\n        /* \"#utility.yul\":4699:4702   */\n      dup3\n        /* \"#utility.yul\":4692:4696   */\n      0x1f\n        /* \"#utility.yul\":4684:4690   */\n      dup4\n        /* \"#utility.yul\":4680:4697   */\n      add\n        /* \"#utility.yul\":4676:4703   */\n      slt\n        /* \"#utility.yul\":4666:4788   */\n      tag_130\n      jumpi\n        /* \"#utility.yul\":4707:4786   */\n      tag_131\n      tag_50\n      jump\t// in\n    tag_131:\n        /* \"#utility.yul\":4666:4788   */\n    tag_130:\n        /* \"#utility.yul\":4824:4830   */\n      dup2\n        /* \"#utility.yul\":4811:4831   */\n      calldataload\n        /* \"#utility.yul\":4849:4928   */\n      tag_132\n        /* \"#utility.yul\":4924:4927   */\n      dup5\n        /* \"#utility.yul\":4916:4922   */\n      dup3\n        /* \"#utility.yul\":4909:4913   */\n      0x20\n        /* \"#utility.yul\":4901:4907   */\n      dup7\n        /* \"#utility.yul\":4897:4914   */\n      add\n        /* \"#utility.yul\":4849:4928   */\n      tag_57\n      jump\t// in\n    tag_132:\n        /* \"#utility.yul\":4840:4928   */\n      swap2\n      pop\n        /* \"#utility.yul\":4656:4934   */\n      pop\n        /* \"#utility.yul\":4594:4934   */\n      swap3\n      swap2\n      pop\n      pop\n      jump\t// out\n        /* \"#utility.yul\":4940:5594   */\n    tag_22:\n        /* \"#utility.yul\":5018:5024   */\n      0x00\n        /* \"#utility.yul\":5026:5032   */\n      dup1\n        /* \"#utility.yul\":5075:5077   */\n      0x40\n        /* \"#utility.yul\":5063:5072   */\n      dup4\n        /* \"#utility.yul\":5054:5061   */\n      dup6\n        /* \"#utility.yul\":5050:5073   */\n      sub\n        /* \"#utility.yul\":5046:5078   */\n      slt\n        /* \"#utility.yul\":5043:5162   */\n      iszero\n      tag_134\n      jumpi\n        /* \"#utility.yul\":5081:5160   */\n      tag_135\n      tag_41\n      jump\t// in\n    tag_135:\n        /* \"#utility.yul\":5043:5162   */\n    tag_134:\n        /* \"#utility.yul\":5229:5230   */\n      0x00\n        /* \"#utility.yul\":5218:5227   */\n      dup4\n        /* \"#utility.yul\":5214:5231   */\n      add\n        /* \"#utility.yul\":5201:5232   */\n      calldataload\n        /* \"#utility.yul\":5259:5277   */\n      0xffffffffffffffff\n        /* \"#utility.yul\":5251:5257   */\n      dup2\n        /* \"#utility.yul\":5248:5278   */\n      gt\n        /* \"#utility.yul\":5245:5362   */\n      iszero\n      tag_136\n      jumpi\n        /* \"#utility.yul\":5281:5360   */\n      tag_137\n      tag_42\n      jump\t// in\n    tag_137:\n        /* \"#utility.yul\":5245:5362   */\n    tag_136:\n        /* \"#utility.yul\":5386:5449   */\n      tag_138\n        /* \"#utility.yul\":5441:5448   */\n      dup6\n        /* \"#utility.yul\":5432:5438   */\n      dup3\n        /* \"#utility.yul\":5421:5430   */\n      dup7\n        /* \"#utility.yul\":5417:5439   */\n      add\n        /* \"#utility.yul\":5386:5449   */\n      tag_58\n      jump\t// in\n    tag_138:\n        /* \"#utility.yul\":5376:5449   */\n      swap3\n      pop\n        /* \"#utility.yul\":5172:5459   */\n      pop\n        /* \"#utility.yul\":5498:5500   */\n      0x20\n        /* \"#utility.yul\":5524:5577   */\n      tag_139\n        /* \"#utility.yul\":5569:5576   */\n      dup6\n        /* \"#utility.yul\":5560:5566   */\n      dup3\n        /* \"#utility.yul\":5549:5558   */\n      dup7\n        /* \"#utility.yul\":5545:5567   */\n      add\n        /* \"#utility.yul\":5524:5577   */\n      tag_44\n      jump\t// in\n    tag_139:\n        /* \"#utility.yul\":5514:5577   */\n      swap2\n      pop\n        /* \"#utility.yul\":5469:5587   */\n      pop\n        /* \"#utility.yul\":4940:5594   */\n      swap3\n      pop\n      swap3\n      swap1\n      pop\n      jump\t// out\n        /* \"#utility.yul\":5600:5780   */\n    tag_59:\n        /* \"#utility.yul\":5648:5725   */\n      0x4e487b7100000000000000000000000000000000000000000000000000000000\n        /* \"#utility.yul\":5645:5646   */\n      0x00\n        /* \"#utility.yul\":5638:5726   */\n      mstore\n        /* \"#utility.yul\":5745:5749   */\n      0x22\n        /* \"#utility.yul\":5742:5743   */\n      0x04\n        /* \"#utility.yul\":5735:5750   */\n      mstore\n        /* \"#utility.yul\":5769:5773   */\n      0x24\n        /* \"#utility.yul\":5766:5767   */\n      0x00\n        /* \"#utility.yul\":5759:5774   */\n      revert\n        /* \"#utility.yul\":5786:6106   */\n    tag_28:\n        /* \"#utility.yul\":5830:5836   */\n      0x00\n        /* \"#utility.yul\":5867:5868   */\n      0x02\n        /* \"#utility.yul\":5861:5865   */\n      dup3\n        /* \"#utility.yul\":5857:5869   */\n      div\n        /* \"#utility.yul\":5847:5869   */\n      swap1\n      pop\n        /* \"#utility.yul\":5914:5915   */\n      0x01\n        /* \"#utility.yul\":5908:5912   */\n      dup3\n        /* \"#utility.yul\":5904:5916   */\n      and\n        /* \"#utility.yul\":5935:5953   */\n      dup1\n        /* \"#utility.yul\":5925:6006   */\n      tag_142\n      jumpi\n        /* \"#utility.yul\":5991:5995   */\n      0x7f\n        /* \"#utility.yul\":5983:5989   */\n      dup3\n        /* \"#utility.yul\":5979:5996   */\n      and\n        /* \"#utility.yul\":5969:5996   */\n      swap2\n      pop\n        /* \"#utility.yul\":5925:6006   */\n    tag_142:\n        /* \"#utility.yul\":6053:6055   */\n      0x20\n        /* \"#utility.yul\":6045:6051   */\n      dup3\n        /* \"#utility.yul\":6042:6056   */\n      lt\n        /* \"#utility.yul\":6022:6040   */\n      dup2\n        /* \"#utility.yul\":6019:6057   */\n      sub\n        /* \"#utility.yul\":6016:6100   */\n      tag_143\n      jumpi\n        /* \"#utility.yul\":6072:6090   */\n      tag_144\n      tag_59\n      jump\t// in\n    tag_144:\n        /* \"#utility.yul\":6016:6100   */\n    tag_143:\n        /* \"#utility.yul\":5837:6106   */\n      pop\n        /* \"#utility.yul\":5786:6106   */\n      swap2\n      swap1\n      pop\n      jump\t// out\n        /* \"#utility.yul\":6112:6253   */\n    tag_60:\n        /* \"#utility.yul\":6161:6165   */\n      0x00\n        /* \"#utility.yul\":6184:6187   */\n      dup2\n        /* \"#utility.yul\":6176:6187   */\n      swap1\n      pop\n        /* \"#utility.yul\":6207:6210   */\n      dup2\n        /* \"#utility.yul\":6204:6205   */\n      0x00\n        /* \"#utility.yul\":6197:6211   */\n      mstore\n        /* \"#utility.yul\":6241:6245   */\n      0x20\n        /* \"#utility.yul\":6238:6239   */\n      0x00\n        /* \"#utility.yul\":6228:6246   */\n      keccak256\n        /* \"#utility.yul\":6220:6246   */\n      swap1\n      pop\n        /* \"#utility.yul\":6112:6253   */\n      swap2\n      swap1\n      pop\n      jump\t// out\n        /* \"#utility.yul\":6259:6352   */\n    tag_61:\n        /* \"#utility.yul\":6296:6302   */\n      0x00\n        /* \"#utility.yul\":6343:6345   */\n      0x20\n        /* \"#utility.yul\":6338:6340   */\n      0x1f\n        /* \"#utility.yul\":6331:6336   */\n      dup4\n        /* \"#utility.yul\":6327:6341   */\n      add\n        /* \"#utility.yul\":6323:6346   */\n      div\n        /* \"#utility.yul\":6313:6346   */\n      swap1\n      pop\n        /* \"#utility.yul\":6259:6352   */\n      swap2\n      swap1\n      pop\n      jump\t// out\n        /* \"#utility.yul\":6358:6465   */\n    tag_62:\n        /* \"#utility.yul\":6402:6410   */\n      0x00\n        /* \"#utility.yul\":6452:6457   */\n      dup3\n        /* \"#utility.yul\":6446:6450   */\n      dup3\n        /* \"#utility.yul\":6442:6458   */\n      shl\n        /* \"#utility.yul\":6421:6458   */\n      swap1\n      pop\n        /* \"#utility.yul\":6358:6465   */\n      swap3\n      swap2\n      pop\n      pop\n      jump\t// out\n        /* \"#utility.yul\":6471:6864   */\n    tag_63:\n        /* \"#utility.yul\":6540:6546   */\n      0x00\n        /* \"#utility.yul\":6590:6591   */\n      0x08\n        /* \"#utility.yul\":6578:6588   */\n      dup4\n        /* \"#utility.yul\":6574:6592   */\n      mul\n        /* \"#utility.yul\":6613:6710   */\n      tag_149\n        /* \"#utility.yul\":6643:6709   */\n      0xffffffffffffffffffffffffffffffffffffffffffffffffffffffffffffffff\n        /* \"#utility.yul\":6632:6641   */\n      dup3\n        /* \"#utility.yul\":6613:6710   */\n      tag_62\n      jump\t// in\n    tag_149:\n        /* \"#utility.yul\":6731:6770   */\n      tag_150\n        /* \"#utility.yul\":6761:6769   */\n      dup7\n        /* \"#utility.yul\":6750:6759   */\n      dup4\n        /* \"#utility.yul\":6731:6770   */\n      tag_62\n      jump\t// in\n    tag_150:\n        /* \"#utility.yul\":6719:6770   */\n      swap6\n      pop\n        /* \"#utility.yul\":6803:6807   */\n      dup1\n        /* \"#utility.yul\":6799:6808   */\n      not\n        /* \"#utility.yul\":6792:6797   */\n      dup5\n        /* \"#utility.yul\":6788:6809   */\n      and\n        /* \"#utility.yul\":6779:6809   */\n      swap4\n      pop\n        /* \"#utility.yul\":6852:6856   */\n      dup1\n        /* \"#utility.yul\":6842:6850   */\n      dup7\n        /* \"#utility.yul\":6838:6857   */\n      and\n        /* \"#utility.yul\":6831:6836   */\n      dup5\n        /* \"#utility.yul\":6828:6858   */\n      or\n        /* \"#utility.yul\":6818:6858   */\n      swap3\n      pop\n        /* \"#utility.yul\":6547:6864   */\n      pop\n      pop\n        /* \"#utility.yul\":6471:6864   */\n      swap4\n      swap3\n      pop\n      pop\n      pop\n      jump\t// out\n        /* \"#utility.yul\":6870:6930   */\n    tag_64:\n        /* \"#utility.yul\":6898:6901   */\n      0x00\n        /* \"#utility.yul\":6919:6924   */\n      dup2\n        /* \"#utility.yul\":6912:6924   */\n      swap1\n      pop\n        /* \"#utility.yul\":6870:6930   */\n      swap2\n      swap1\n      pop\n      jump\t// out\n        /* \"#utility.yul\":6936:7078   */\n    tag_65:\n        /* \"#utility.yul\":6986:6995   */\n      0x00\n        /* \"#utility.yul\":7019:7072   */\n      tag_153\n        /* \"#utility.yul\":7037:7071   */\n      tag_154\n        /* \"#utility.yul\":7046:7070   */\n      tag_155\n        /* \"#utility.yul\":7064:7069   */\n      dup5\n        /* \"#utility.yul\":7046:7070   */\n      tag_38\n      jump\t// in\n    tag_155:\n        /* \"#utility.yul\":7037:7071   */\n      tag_64\n      jump\t// in\n    tag_154:\n        /* \"#utility.yul\":7019:7072   */\n      tag_38\n      jump\t// in\n    tag_153:\n        /* \"#utility.yul\":7006:7072   */\n      swap1\n      pop\n        /* \"#utility.yul\":6936:7078   */\n      swap2\n      swap1\n      pop\n      jump\t// out\n        /* \"#utility.yul\":7084:7159   */\n    tag_66:\n        /* \"#utility.yul\":7127:7130   */\n      0x00\n        /* \"#utility.yul\":7148:7153   */\n      dup2\n        /* \"#utility.yul\":7141:7153   */\n      swap1\n      pop\n        /* \"#utility.yul\":7084:7159   */\n      swap2\n      swap1\n      pop\n      jump\t// out\n        /* \"#utility.yul\":7165:7434   */\n    tag_67:\n        /* \"#utility.yul\":7275:7314   */\n      tag_158\n        /* \"#utility.yul\":7306:7313   */\n      dup4\n        /* \"#utility.yul\":7275:7314   */\n      tag_65\n      jump\t// in\n    tag_158:\n        /* \"#utility.yul\":7336:7427   */\n      tag_159\n        /* \"#utility.yul\":7385:7426   */\n      tag_160\n        /* \"#utility.yul\":7409:7425   */\n      dup3\n        /* \"#utility.yul\":7385:7426   */\n      tag_66\n      jump\t// in\n    tag_160:\n        /* \"#utility.yul\":7377:7383   */\n      dup5\n        /* \"#utility.yul\":7370:7374   */\n      dup5\n        /* \"#utility.yul\":7364:7375   */\n      sload\n        /* \"#utility.yul\":7336:7427   */\n      tag_63\n      jump\t// in\n    tag_159:\n        /* \"#utility.yul\":7330:7334   */\n      dup3\n        /* \"#utility.yul\":7323:7428   */\n      sstore\n        /* \"#utility.yul\":7241:7434   */\n      pop\n        /* \"#utility.yul\":7165:7434   */\n      pop\n      pop\n      pop\n      jump\t// out\n        /* \"#utility.yul\":7440:7513   */\n    tag_68:\n        /* \"#utility.yul\":7485:7488   */\n      0x00\n        /* \"#utility.yul\":7440:7513   */\n      swap1\n      jump\t// out\n        /* \"#utility.yul\":7519:7708   */\n    tag_69:\n        /* \"#utility.yul\":7596:7628   */\n      tag_163\n      tag_68\n      jump\t// in\n    tag_163:\n        /* \"#utility.yul\":7637:7702   */\n      tag_164\n        /* \"#utility.yul\":7695:7701   */\n      dup2\n        /* \"#utility.yul\":7687:7693   */\n      dup5\n        /* \"#utility.yul\":7681:7685   */\n      dup5\n        /* \"#utility.yul\":7637:7702   */\n      tag_67\n      jump\t// in\n    tag_164:\n        /* \"#utility.yul\":7572:7708   */\n      pop\n        /* \"#utility.yul\":7519:7708   */\n      pop\n      pop\n      jump\t// out\n        /* \"#utility.yul\":7714:7900   */\n    tag_70:\n        /* \"#utility.yul\":7774:7894   */\n    tag_166:\n        /* \"#utility.yul\":7791:7794   */\n      dup2\n        /* \"#utility.yul\":7784:7789   */\n      dup2\n        /* \"#utility.yul\":7781:7795   */\n      lt\n        /* \"#utility.yul\":7774:7894   */\n      iszero\n      tag_168\n      jumpi\n        /* \"#utility.yul\":7845:7884   */\n      tag_169\n        /* \"#utility.yul\":7882:7883   */\n      0x00\n        /* \"#utility.yul\":7875:7880   */\n      dup3\n        /* \"#utility.yul\":7845:7884   */\n      tag_69\n      jump\t// in\n    tag_169:\n        /* \"#utility.yul\":7818:7819   */\n      0x01\n        /* \"#utility.yul\":7811:7816   */\n      dup2\n        /* \"#utility.yul\":7807:7820   */\n      add\n        /* \"#utility.yul\":7798:7820   */\n      swap1\n      pop\n        /* \"#utility.yul\":7774:7894   */\n      jump(tag_166)\n    tag_168:\n        /* \"#utility.yul\":7714:7900   */\n      pop\n      pop\n      jump\t// out\n        /* \"#utility.yul\":7906:8449   */\n    tag_71:\n        /* \"#utility.yul\":8007:8009   */\n      0x1f\n        /* \"#utility.yul\":8002:8005   */\n      dup3\n        /* \"#utility.yul\":7999:8010   */\n      gt\n        /* \"#utility.yul\":7996:8442   */\n      iszero\n      tag_171\n      jumpi\n        /* \"#utility.yul\":8041:8079   */\n      tag_172\n        /* \"#utility.yul\":8073:8078   */\n      dup2\n        /* \"#utility.yul\":8041:8079   */\n      tag_60\n      jump\t// in\n    tag_172:\n        /* \"#utility.yul\":8125:8154   */\n      tag_173\n        /* \"#utility.yul\":8143:8153   */\n      dup5\n        /* \"#utility.yul\":8125:8154   */\n      tag_61\n      jump\t// in\n    tag_173:\n        /* \"#utility.yul\":8115:8123   */\n      dup2\n        /* \"#utility.yul\":8111:8155   */\n      add\n        /* \"#utility.yul\":8308:8310   */\n      0x20\n        /* \"#utility.yul\":8296:8306   */\n      dup6\n        /* \"#utility.yul\":8293:8311   */\n      lt\n        /* \"#utility.yul\":8290:8339   */\n      iszero\n      tag_174\n      jumpi\n        /* \"#utility.yul\":8329:8337   */\n      dup2\n        /* \"#utility.yul\":8314:8337   */\n      swap1\n      pop\n        /* \"#utility.yul\":8290:8339   */\n    tag_174:\n        /* \"#utility.yul\":8352:8432   */\n      tag_175\n        /* \"#utility.yul\":8408:8430   */\n      tag_176\n        /* \"#utility.yul\":8426:8429   */\n      dup6\n        /* \"#utility.yul\":8408:8430   */\n      tag_61\n      jump\t// in\n    tag_176:\n        /* \"#utility.yul\":8398:8406   */\n      dup4\n        /* \"#utility.yul\":8394:8431   */\n      add\n        /* \"#utility.yul\":8381:8392   */\n      dup3\n        /* \"#utility.yul\":8352:8432   */\n      tag_70\n      jump\t// in\n    tag_175:\n        /* \"#utility.yul\":8011:8442   */\n      pop\n      pop\n        /* \"#utility.yul\":7996:8442   */\n    tag_171:\n        /* \"#utility.yul\":7906:8449   */\n      pop\n      pop\n      pop\n      jump\t// out\n        /* \"#utility.yul\":8455:8572   */\n    tag_72:\n        /* \"#utility.yul\":8509:8517   */\n      0x00\n        /* \"#utility.yul\":8559:8564   */\n      dup3\n        /* \"#utility.yul\":8553:8557   */\n      dup3\n        /* \"#utility.yul\":8549:8565   */\n      shr\n        /* \"#utility.yul\":8528:8565   */\n      swap1\n      pop\n        /* \"#utility.yul\":8455:8572   */\n      swap3\n      swap2\n      pop\n      pop\n      jump\t// out\n        /* \"#utility.yul\":8578:8747   */\n    tag_73:\n        /* \"#utility.yul\":8622:8628   */\n      0x00\n        /* \"#utility.yul\":8655:8706   */\n      tag_179\n        /* \"#utility.yul\":8703:8704   */\n      0x00\n        /* \"#utility.yul\":8699:8705   */\n      not\n        /* \"#utility.yul\":8691:8696   */\n      dup5\n        /* \"#utility.yul\":8688:8689   */\n      0x08\n        /* \"#utility.yul\":8684:8697   */\n      mul\n        /* \"#utility.yul\":8655:8706   */\n      tag_72\n      jump\t// in\n    tag_179:\n        /* \"#utility.yul\":8651:8707   */\n      not\n        /* \"#utility.yul\":8736:8740   */\n      dup1\n        /* \"#utility.yul\":8730:8734   */\n      dup4\n        /* \"#utility.yul\":8726:8741   */\n      and\n        /* \"#utility.yul\":8716:8741   */\n      swap2\n      pop\n        /* \"#utility.yul\":8629:8747   */\n      pop\n        /* \"#utility.yul\":8578:8747   */\n      swap3\n      swap2\n      pop\n      pop\n      jump\t// out\n        /* \"#utility.yul\":8752:9047   */\n    tag_74:\n        /* \"#utility.yul\":8828:8832   */\n      0x00\n        /* \"#utility.yul\":8974:9003   */\n      tag_181\n        /* \"#utility.yul\":8999:9002   */\n      dup4\n        /* \"#utility.yul\":8993:8997   */\n      dup4\n        /* \"#utility.yul\":8974:9003   */\n      tag_73\n      jump\t// in\n    tag_181:\n        /* \"#utility.yul\":8966:9003   */\n      swap2\n      pop\n        /* \"#utility.yul\":9036:9039   */\n      dup3\n        /* \"#utility.yul\":9033:9034   */\n      0x02\n        /* \"#utility.yul\":9029:9040   */\n      mul\n        /* \"#utility.yul\":9023:9027   */\n      dup3\n        /* \"#utility.yul\":9020:9041   */\n      or\n        /* \"#utility.yul\":9012:9041   */\n      swap1\n      pop\n        /* \"#utility.yul\":8752:9047   */\n      swap3\n      swap2\n      pop\n      pop\n      jump\t// out\n        /* \"#utility.yul\":9052:10447   */\n    tag_37:\n        /* \"#utility.yul\":9169:9206   */\n      tag_183\n        /* \"#utility.yul\":9202:9205   */\n      dup3\n        /* \"#utility.yul\":9169:9206   */\n      tag_45\n      jump\t// in\n    tag_183:\n        /* \"#utility.yul\":9271:9289   */\n      0xffffffffffffffff\n        /* \"#utility.yul\":9263:9269   */\n      dup2\n        /* \"#utility.yul\":9260:9290   */\n      gt\n        /* \"#utility.yul\":9257:9313   */\n      iszero\n      tag_184\n      jumpi\n        /* \"#utility.yul\":9293:9311   */\n      tag_185\n      tag_52\n      jump\t// in\n    tag_185:\n        /* \"#utility.yul\":9257:9313   */\n    tag_184:\n        /* \"#utility.yul\":9337:9375   */\n      tag_186\n        /* \"#utility.yul\":9369:9373   */\n      dup3\n        /* \"#utility.yul\":9363:9374   */\n      sload\n        /* \"#utility.yul\":9337:9375   */\n      tag_28\n      jump\t// in\n    tag_186:\n        /* \"#utility.yul\":9422:9489   */\n      tag_187\n        /* \"#utility.yul\":9482:9488   */\n      dup3\n        /* \"#utility.yul\":9474:9480   */\n      dup3\n        /* \"#utility.yul\":9468:9472   */\n      dup6\n        /* \"#utility.yul\":9422:9489   */\n      tag_71\n      jump\t// in\n    tag_187:\n        /* \"#utility.yul\":9516:9517   */\n      0x00\n        /* \"#utility.yul\":9540:9544   */\n      0x20\n        /* \"#utility.yul\":9527:9544   */\n      swap1\n      pop\n        /* \"#utility.yul\":9572:9574   */\n      0x1f\n        /* \"#utility.yul\":9564:9570   */\n      dup4\n        /* \"#utility.yul\":9561:9575   */\n      gt\n        /* \"#utility.yul\":9589:9590   */\n      0x01\n        /* \"#utility.yul\":9584:10202   */\n      dup2\n      eq\n      tag_189\n      jumpi\n        /* \"#utility.yul\":10246:10247   */\n      0x00\n        /* \"#utility.yul\":10263:10269   */\n      dup5\n        /* \"#utility.yul\":10260:10337   */\n      iszero\n      tag_190\n      jumpi\n        /* \"#utility.yul\":10312:10321   */\n      dup3\n        /* \"#utility.yul\":10307:10310   */\n      dup8\n        /* \"#utility.yul\":10303:10322   */\n      add\n        /* \"#utility.yul\":10297:10323   */\n      mload\n        /* \"#utility.yul\":10288:10323   */\n      swap1\n      pop\n        /* \"#utility.yul\":10260:10337   */\n    tag_190:\n        /* \"#utility.yul\":10363:10430   */\n      tag_191\n        /* \"#utility.yul\":10423:10429   */\n      dup6\n        /* \"#utility.yul\":10416:10421   */\n      dup3\n        /* \"#utility.yul\":10363:10430   */\n      tag_74\n      jump\t// in\n    tag_191:\n        /* \"#utility.yul\":10357:10361   */\n      dup7\n        /* \"#utility.yul\":10350:10431   */\n      sstore\n        /* \"#utility.yul\":10219:10441   */\n      pop\n        /* \"#utility.yul\":9554:10441   */\n      jump(tag_188)\n        /* \"#utility.yul\":9584:10202   */\n    tag_189:\n        /* \"#utility.yul\":9636:9640   */\n      0x1f\n        /* \"#utility.yul\":9632:9641   */\n      not\n        /* \"#utility.yul\":9624:9630   */\n      dup5\n        /* \"#utility.yul\":9620:9642   */\n      and\n        /* \"#utility.yul\":9670:9707   */\n      tag_192\n        /* \"#utility.yul\":9702:9706   */\n      dup7\n        /* \"#utility.yul\":9670:9707   */\n      tag_60\n      jump\t// in\n    tag_192:\n        /* \"#utility.yul\":9729:9730   */\n      0x00\n        /* \"#utility.yul\":9743:9951   */\n    tag_193:\n        /* \"#utility.yul\":9757:9764   */\n      dup3\n        /* \"#utility.yul\":9754:9755   */\n      dup2\n        /* \"#utility.yul\":9751:9765   */\n      lt\n        /* \"#utility.yul\":9743:9951   */\n      iszero\n      tag_195\n      jumpi\n        /* \"#utility.yul\":9836:9845   */\n      dup5\n        /* \"#utility.yul\":9831:9834   */\n      dup10\n        /* \"#utility.yul\":9827:9846   */\n      add\n        /* \"#utility.yul\":9821:9847   */\n      mload\n        /* \"#utility.yul\":9813:9819   */\n      dup3\n        /* \"#utility.yul\":9806:9848   */\n      sstore\n        /* \"#utility.yul\":9887:9888   */\n      0x01\n        /* \"#utility.yul\":9879:9885   */\n      dup3\n        /* \"#utility.yul\":9875:9889   */\n      add\n        /* \"#utility.yul\":9865:9889   */\n      swap2\n      pop\n        /* \"#utility.yul\":9934:9936   */\n      0x20\n        /* \"#utility.yul\":9923:9932   */\n      dup6\n        /* \"#utility.yul\":9919:9937   */\n      add\n        /* \"#utility.yul\":9906:9937   */\n      swap5\n      pop\n        /* \"#utility.yul\":9780:9784   */\n      0x20\n        /* \"#utility.yul\":9777:9778   */\n      dup2\n        /* \"#utility.yul\":9773:9785   */\n      add\n        /* \"#utility.yul\":9768:9785   */\n      swap1\n      pop\n        /* \"#utility.yul\":9743:9951   */\n      jump(tag_193)\n    tag_195:\n        /* \"#utility.yul\":9979:9985   */\n      dup7\n        /* \"#utility.yul\":9970:9977   */\n      dup4\n        /* \"#utility.yul\":9967:9986   */\n      lt\n        /* \"#utility.yul\":9964:10143   */\n      iszero\n      tag_196\n      jumpi\n        /* \"#utility.yul\":10037:10046   */\n      dup5\n        /* \"#utility.yul\":10032:10035   */\n      dup10\n        /* \"#utility.yul\":10028:10047   */\n      add\n        /* \"#utility.yul\":10022:10048   */\n      mload\n        /* \"#utility.yul\":10080:10128   */\n      tag_197\n        /* \"#utility.yul\":10122:10126   */\n      0x1f\n        /* \"#utility.yul\":10114:10120   */\n      dup10\n        /* \"#utility.yul\":10110:10127   */\n      and\n        /* \"#utility.yul\":10099:10108   */\n      dup3\n        /* \"#utility.yul\":10080:10128   */\n      tag_73\n      jump\t// in\n    tag_197:\n        /* \"#utility.yul\":10072:10078   */\n      dup4\n        /* \"#utility.yul\":10065:10129   */\n      sstore\n        /* \"#utility.yul\":9987:10143   */\n      pop\n        /* \"#utility.yul\":9964:10143   */\n    tag_196:\n        /* \"#utility.yul\":10189:10190   */\n      0x01\n        /* \"#utility.yul\":10185:10186   */\n      0x02\n        /* \"#utility.yul\":10177:10183   */\n      dup9\n        /* \"#utility.yul\":10173:10187   */\n      mul\n        /* \"#utility.yul\":10169:10191   */\n      add\n        /* \"#utility.yul\":10163:10167   */\n      dup9\n        /* \"#utility.yul\":10156:10192   */\n      sstore\n        /* \"#utility.yul\":9591:10202   */\n      pop\n      pop\n      pop\n        /* \"#utility.yul\":9554:10441   */\n    tag_188:\n      pop\n        /* \"#utility.yul\":9144:10447   */\n      pop\n      pop\n      pop\n        /* \"#utility.yul\":9052:10447   */\n      pop\n      pop\n      jump\t// out\n\n    auxdata: 0xa26469706673582212207bcc7fb66a3f0e6ddb4cbd412cf127d9d6cdf66f891d055fec5f22fdbf8b864b64736f6c63430008120033\n}\n",
				"bytecode": {
					"linkReferences": {},
					"object": "608060405234801561001057600080fd5b50610813806100206000396000f3fe608060405234801561001057600080fd5b506004361061004c5760003560e01c80632e64cec1146100515780632ebce6311461006f5780636057361d146100a05780636f760f41146100bc575b600080fd5b6100596100d8565b6040516100669190610226565b60405180910390f35b61008960048036038101906100849190610281565b6100e1565b60405161009792919061033e565b60405180910390f35b6100ba60048036038101906100b59190610281565b61019d565b005b6100d660048036038101906100d191906104a3565b6101a7565b005b60008054905090565b600181815481106100f157600080fd5b906000526020600020906002020160009150905080600001549080600101805461011a9061052e565b80601f01602080910402602001604051908101604052809291908181526020018280546101469061052e565b80156101935780601f1061016857610100808354040283529160200191610193565b820191906000526020600020905b81548152906001019060200180831161017657829003601f168201915b5050505050905082565b8060008190555050565b60016040518060400160405280838152602001848152509080600181540180825580915050600190039060005260206000209060020201600090919091909150600082015181600001556020820151816001019081610206919061070b565b5050505050565b6000819050919050565b6102208161020d565b82525050565b600060208201905061023b6000830184610217565b92915050565b6000604051905090565b600080fd5b600080fd5b61025e8161020d565b811461026957600080fd5b50565b60008135905061027b81610255565b92915050565b6000602082840312156102975761029661024b565b5b60006102a58482850161026c565b91505092915050565b600081519050919050565b600082825260208201905092915050565b60005b838110156102e85780820151818401526020810190506102cd565b60008484015250505050565b6000601f19601f8301169050919050565b6000610310826102ae565b61031a81856102b9565b935061032a8185602086016102ca565b610333816102f4565b840191505092915050565b60006040820190506103536000830185610217565b81810360208301526103658184610305565b90509392505050565b600080fd5b600080fd5b7f4e487b7100000000000000000000000000000000000000000000000000000000600052604160045260246000fd5b6103b0826102f4565b810181811067ffffffffffffffff821117156103cf576103ce610378565b5b80604052505050565b60006103e2610241565b90506103ee82826103a7565b919050565b600067ffffffffffffffff82111561040e5761040d610378565b5b610417826102f4565b9050602081019050919050565b82818337600083830152505050565b6000610446610441846103f3565b6103d8565b90508281526020810184848401111561046257610461610373565b5b61046d848285610424565b509392505050565b600082601f83011261048a5761048961036e565b5b813561049a848260208601610433565b91505092915050565b600080604083850312156104ba576104b961024b565b5b600083013567ffffffffffffffff8111156104d8576104d7610250565b5b6104e485828601610475565b92505060206104f58582860161026c565b9150509250929050565b7f4e487b7100000000000000000000000000000000000000000000000000000000600052602260045260246000fd5b6000600282049050600182168061054657607f821691505b602082108103610559576105586104ff565b5b50919050565b60008190508160005260206000209050919050565b60006020601f8301049050919050565b600082821b905092915050565b6000600883026105c17fffffffffffffffffffffffffffffffffffffffffffffffffffffffffffffffff82610584565b6105cb8683610584565b95508019841693508086168417925050509392505050565b6000819050919050565b60006106086106036105fe8461020d565b6105e3565b61020d565b9050919050565b6000819050919050565b610622836105ed565b61063661062e8261060f565b848454610591565b825550505050565b600090565b61064b61063e565b610656818484610619565b505050565b5b8181101561067a5761066f600082610643565b60018101905061065c565b5050565b601f8211156106bf576106908161055f565b61069984610574565b810160208510156106a8578190505b6106bc6106b485610574565b83018261065b565b50505b505050565b600082821c905092915050565b60006106e2600019846008026106c4565b1980831691505092915050565b60006106fb83836106d1565b9150826002028217905092915050565b610714826102ae565b67ffffffffffffffff81111561072d5761072c610378565b5b610737825461052e565b61074282828561067e565b600060209050601f8311600181146107755760008415610763578287015190505b61076d85826106ef565b8655506107d5565b601f1984166107838661055f565b60005b828110156107ab57848901518255600182019150602085019450602081019050610786565b868310156107c857848901516107c4601f8916826106d1565b8355505b6001600288020188555050505b50505050505056fea26469706673582212207bcc7fb66a3f0e6ddb4cbd412cf127d9d6cdf66f891d055fec5f22fdbf8b864b64736f6c63430008120033",
					"opcodes": "PUSH1 0x80 PUSH1 0x40 MSTORE CALLVALUE DUP1 ISZERO PUSH2 0x10 JUMPI PUSH1 0x0 DUP1 REVERT JUMPDEST POP PUSH2 0x813 DUP1 PUSH2 0x20 PUSH1 0x0 CODECOPY PUSH1 0x0 RETURN INVALID PUSH1 0x80 PUSH1 0x40 MSTORE CALLVALUE DUP1 ISZERO PUSH2 0x10 JUMPI PUSH1 0x0 DUP1 REVERT JUMPDEST POP PUSH1 0x4 CALLDATASIZE LT PUSH2 0x4C JUMPI PUSH1 0x0 CALLDATALOAD PUSH1 0xE0 SHR DUP1 PUSH4 0x2E64CEC1 EQ PUSH2 0x51 JUMPI DUP1 PUSH4 0x2EBCE631 EQ PUSH2 0x6F JUMPI DUP1 PUSH4 0x6057361D EQ PUSH2 0xA0 JUMPI DUP1 PUSH4 0x6F760F41 EQ PUSH2 0xBC JUMPI JUMPDEST PUSH1 0x0 DUP1 REVERT JUMPDEST PUSH2 0x59 PUSH2 0xD8 JUMP JUMPDEST PUSH1 0x40 MLOAD PUSH2 0x66 SWAP2 SWAP1 PUSH2 0x226 JUMP JUMPDEST PUSH1 0x40 MLOAD DUP1 SWAP2 SUB SWAP1 RETURN JUMPDEST PUSH2 0x89 PUSH1 0x4 DUP1 CALLDATASIZE SUB DUP2 ADD SWAP1 PUSH2 0x84 SWAP2 SWAP1 PUSH2 0x281 JUMP JUMPDEST PUSH2 0xE1 JUMP JUMPDEST PUSH1 0x40 MLOAD PUSH2 0x97 SWAP3 SWAP2 SWAP1 PUSH2 0x33E JUMP JUMPDEST PUSH1 0x40 MLOAD DUP1 SWAP2 SUB SWAP1 RETURN JUMPDEST PUSH2 0xBA PUSH1 0x4 DUP1 CALLDATASIZE SUB DUP2 ADD SWAP1 PUSH2 0xB5 SWAP2 SWAP1 PUSH2 0x281 JUMP JUMPDEST PUSH2 0x19D JUMP JUMPDEST STOP JUMPDEST PUSH2 0xD6 PUSH1 0x4 DUP1 CALLDATASIZE SUB DUP2 ADD SWAP1 PUSH2 0xD1 SWAP2 SWAP1 PUSH2 0x4A3 JUMP JUMPDEST PUSH2 0x1A7 JUMP JUMPDEST STOP JUMPDEST PUSH1 0x0 DUP1 SLOAD SWAP1 POP SWAP1 JUMP JUMPDEST PUSH1 0x1 DUP2 DUP2 SLOAD DUP2 LT PUSH2 0xF1 JUMPI PUSH1 0x0 DUP1 REVERT JUMPDEST SWAP1 PUSH1 0x0 MSTORE PUSH1 0x20 PUSH1 0x0 KECCAK256 SWAP1 PUSH1 0x2 MUL ADD PUSH1 0x0 SWAP2 POP SWAP1 POP DUP1 PUSH1 0x0 ADD SLOAD SWAP1 DUP1 PUSH1 0x1 ADD DUP1 SLOAD PUSH2 0x11A SWAP1 PUSH2 0x52E JUMP JUMPDEST DUP1 PUSH1 0x1F ADD PUSH1 0x20 DUP1 SWAP2 DIV MUL PUSH1 0x20 ADD PUSH1 0x40 MLOAD SWAP1 DUP2 ADD PUSH1 0x40 MSTORE DUP1 SWAP3 SWAP2 SWAP1 DUP2 DUP2 MSTORE PUSH1 0x20 ADD DUP3 DUP1 SLOAD PUSH2 0x146 SWAP1 PUSH2 0x52E JUMP JUMPDEST DUP1 ISZERO PUSH2 0x193 JUMPI DUP1 PUSH1 0x1F LT PUSH2 0x168 JUMPI PUSH2 0x100 DUP1 DUP4 SLOAD DIV MUL DUP4 MSTORE SWAP2 PUSH1 0x20 ADD SWAP2 PUSH2 0x193 JUMP JUMPDEST DUP3 ADD SWAP2 SWAP1 PUSH1 0x0 MSTORE PUSH1 0x20 PUSH1 0x0 KECCAK256 SWAP1 JUMPDEST DUP2 SLOAD DUP2 MSTORE SWAP1 PUSH1 0x1 ADD SWAP1 PUSH1 0x20 ADD DUP1 DUP4 GT PUSH2 0x176 JUMPI DUP3 SWAP1 SUB PUSH1 0x1F AND DUP3 ADD SWAP2 JUMPDEST POP POP POP POP POP SWAP1 POP DUP3 JUMP JUMPDEST DUP1 PUSH1 0x0 DUP2 SWAP1 SSTORE POP POP JUMP JUMPDEST PUSH1 0x1 PUSH1 0x40 MLOAD DUP1 PUSH1 0x40 ADD PUSH1 0x40 MSTORE DUP1 DUP4 DUP2 MSTORE PUSH1 0x20 ADD DUP5 DUP2 MSTORE POP SWAP1 DUP1 PUSH1 0x1 DUP2 SLOAD ADD DUP1 DUP3 SSTORE DUP1 SWAP2 POP POP PUSH1 0x1 SWAP1 SUB SWAP1 PUSH1 0x0 MSTORE PUSH1 0x20 PUSH1 0x0 KECCAK256 SWAP1 PUSH1 0x2 MUL ADD PUSH1 0x0 SWAP1 SWAP2 SWAP1 SWAP2 SWAP1 SWAP2 POP PUSH1 0x0 DUP3 ADD MLOAD DUP2 PUSH1 0x0 ADD SSTORE PUSH1 0x20 DUP3 ADD MLOAD DUP2 PUSH1 0x1 ADD SWAP1 DUP2 PUSH2 0x206 SWAP2 SWAP1 PUSH2 0x70B JUMP JUMPDEST POP POP POP POP POP JUMP JUMPDEST PUSH1 0x0 DUP2 SWAP1 POP SWAP2 SWAP1 POP JUMP JUMPDEST PUSH2 0x220 DUP2 PUSH2 0x20D JUMP JUMPDEST DUP3 MSTORE POP POP JUMP JUMPDEST PUSH1 0x0 PUSH1 0x20 DUP3 ADD SWAP1 POP PUSH2 0x23B PUSH1 0x0 DUP4 ADD DUP5 PUSH2 0x217 JUMP JUMPDEST SWAP3 SWAP2 POP POP JUMP JUMPDEST PUSH1 0x0 PUSH1 0x40 MLOAD SWAP1 POP SWAP1 JUMP JUMPDEST PUSH1 0x0 DUP1 REVERT JUMPDEST PUSH1 0x0 DUP1 REVERT JUMPDEST PUSH2 0x25E DUP2 PUSH2 0x20D JUMP JUMPDEST DUP2 EQ PUSH2 0x269 JUMPI PUSH1 0x0 DUP1 REVERT JUMPDEST POP JUMP JUMPDEST PUSH1 0x0 DUP2 CALLDATALOAD SWAP1 POP PUSH2 0x27B DUP2 PUSH2 0x255 JUMP JUMPDEST SWAP3 SWAP2 POP POP JUMP JUMPDEST PUSH1 0x0 PUSH1 0x20 DUP3 DUP5 SUB SLT ISZERO PUSH2 0x297 JUMPI PUSH2 0x296 PUSH2 0x24B JUMP JUMPDEST JUMPDEST PUSH1 0x0 PUSH2 0x2A5 DUP5 DUP3 DUP6 ADD PUSH2 0x26C JUMP JUMPDEST SWAP2 POP POP SWAP3 SWAP2 POP POP JUMP JUMPDEST PUSH1 0x0 DUP2 MLOAD SWAP1 POP SWAP2 SWAP1 POP JUMP JUMPDEST PUSH1 0x0 DUP3 DUP3 MSTORE PUSH1 0x20 DUP3 ADD SWAP1 POP SWAP3 SWAP2 POP POP JUMP JUMPDEST PUSH1 0x0 JUMPDEST DUP4 DUP2 LT ISZERO PUSH2 0x2E8 JUMPI DUP1 DUP3 ADD MLOAD DUP2 DUP5 ADD MSTORE PUSH1 0x20 DUP2 ADD SWAP1 POP PUSH2 0x2CD JUMP JUMPDEST PUSH1 0x0 DUP5 DUP5 ADD MSTORE POP POP POP POP JUMP JUMPDEST PUSH1 0x0 PUSH1 0x1F NOT PUSH1 0x1F DUP4 ADD AND SWAP1 POP SWAP2 SWAP1 POP JUMP JUMPDEST PUSH1 0x0 PUSH2 0x310 DUP3 PUSH2 0x2AE JUMP JUMPDEST PUSH2 0x31A DUP2 DUP6 PUSH2 0x2B9 JUMP JUMPDEST SWAP4 POP PUSH2 0x32A DUP2 DUP6 PUSH1 0x20 DUP7 ADD PUSH2 0x2CA JUMP JUMPDEST PUSH2 0x333 DUP2 PUSH2 0x2F4 JUMP JUMPDEST DUP5 ADD SWAP2 POP POP SWAP3 SWAP2 POP POP JUMP JUMPDEST PUSH1 0x0 PUSH1 0x40 DUP3 ADD SWAP1 POP PUSH2 0x353 PUSH1 0x0 DUP4 ADD DUP6 PUSH2 0x217 JUMP JUMPDEST DUP2 DUP2 SUB PUSH1 0x20 DUP4 ADD MSTORE PUSH2 0x365 DUP2 DUP5 PUSH2 0x305 JUMP JUMPDEST SWAP1 POP SWAP4 SWAP3 POP POP POP JUMP JUMPDEST PUSH1 0x0 DUP1 REVERT JUMPDEST PUSH1 0x0 DUP1 REVERT JUMPDEST PUSH32 0x4E487B7100000000000000000000000000000000000000000000000000000000 PUSH1 0x0 MSTORE PUSH1 0x41 PUSH1 0x4 MSTORE PUSH1 0x24 PUSH1 0x0 REVERT JUMPDEST PUSH2 0x3B0 DUP3 PUSH2 0x2F4 JUMP JUMPDEST DUP2 ADD DUP2 DUP2 LT PUSH8 0xFFFFFFFFFFFFFFFF DUP3 GT OR ISZERO PUSH2 0x3CF JUMPI PUSH2 0x3CE PUSH2 0x378 JUMP JUMPDEST JUMPDEST DUP1 PUSH1 0x40 MSTORE POP POP POP JUMP JUMPDEST PUSH1 0x0 PUSH2 0x3E2 PUSH2 0x241 JUMP JUMPDEST SWAP1 POP PUSH2 0x3EE DUP3 DUP3 PUSH2 0x3A7 JUMP JUMPDEST SWAP2 SWAP1 POP JUMP JUMPDEST PUSH1 0x0 PUSH8 0xFFFFFFFFFFFFFFFF DUP3 GT ISZERO PUSH2 0x40E JUMPI PUSH2 0x40D PUSH2 0x378 JUMP JUMPDEST JUMPDEST PUSH2 0x417 DUP3 PUSH2 0x2F4 JUMP JUMPDEST SWAP1 POP PUSH1 0x20 DUP2 ADD SWAP1 POP SWAP2 SWAP1 POP JUMP JUMPDEST DUP3 DUP2 DUP4 CALLDATACOPY PUSH1 0x0 DUP4 DUP4 ADD MSTORE POP POP POP JUMP JUMPDEST PUSH1 0x0 PUSH2 0x446 PUSH2 0x441 DUP5 PUSH2 0x3F3 JUMP JUMPDEST PUSH2 0x3D8 JUMP JUMPDEST SWAP1 POP DUP3 DUP2 MSTORE PUSH1 0x20 DUP2 ADD DUP5 DUP5 DUP5 ADD GT ISZERO PUSH2 0x462 JUMPI PUSH2 0x461 PUSH2 0x373 JUMP JUMPDEST JUMPDEST PUSH2 0x46D DUP5 DUP3 DUP6 PUSH2 0x424 JUMP JUMPDEST POP SWAP4 SWAP3 POP POP POP JUMP JUMPDEST PUSH1 0x0 DUP3 PUSH1 0x1F DUP4 ADD SLT PUSH2 0x48A JUMPI PUSH2 0x489 PUSH2 0x36E JUMP JUMPDEST JUMPDEST DUP2 CALLDATALOAD PUSH2 0x49A DUP5 DUP3 PUSH1 0x20 DUP7 ADD PUSH2 0x433 JUMP JUMPDEST SWAP2 POP POP SWAP3 SWAP2 POP POP JUMP JUMPDEST PUSH1 0x0 DUP1 PUSH1 0x40 DUP4 DUP6 SUB SLT ISZERO PUSH2 0x4BA JUMPI PUSH2 0x4B9 PUSH2 0x24B JUMP JUMPDEST JUMPDEST PUSH1 0x0 DUP4 ADD CALLDATALOAD PUSH8 0xFFFFFFFFFFFFFFFF DUP2 GT ISZERO PUSH2 0x4D8 JUMPI PUSH2 0x4D7 PUSH2 0x250 JUMP JUMPDEST JUMPDEST PUSH2 0x4E4 DUP6 DUP3 DUP7 ADD PUSH2 0x475 JUMP JUMPDEST SWAP3 POP POP PUSH1 0x20 PUSH2 0x4F5 DUP6 DUP3 DUP7 ADD PUSH2 0x26C JUMP JUMPDEST SWAP2 POP POP SWAP3 POP SWAP3 SWAP1 POP JUMP JUMPDEST PUSH32 0x4E487B7100000000000000000000000000000000000000000000000000000000 PUSH1 0x0 MSTORE PUSH1 0x22 PUSH1 0x4 MSTORE PUSH1 0x24 PUSH1 0x0 REVERT JUMPDEST PUSH1 0x0 PUSH1 0x2 DUP3 DIV SWAP1 POP PUSH1 0x1 DUP3 AND DUP1 PUSH2 0x546 JUMPI PUSH1 0x7F DUP3 AND SWAP2 POP JUMPDEST PUSH1 0x20 DUP3 LT DUP2 SUB PUSH2 0x559 JUMPI PUSH2 0x558 PUSH2 0x4FF JUMP JUMPDEST JUMPDEST POP SWAP2 SWAP1 POP JUMP JUMPDEST PUSH1 0x0 DUP2 SWAP1 POP DUP2 PUSH1 0x0 MSTORE PUSH1 0x20 PUSH1 0x0 KECCAK256 SWAP1 POP SWAP2 SWAP1 POP JUMP JUMPDEST PUSH1 0x0 PUSH1 0x20 PUSH1 0x1F DUP4 ADD DIV SWAP1 POP SWAP2 SWAP1 POP JUMP JUMPDEST PUSH1 0x0 DUP3 DUP3 SHL SWAP1 POP SWAP3 SWAP2 POP POP JUMP JUMPDEST PUSH1 0x0 PUSH1 0x8 DUP4 MUL PUSH2 0x5C1 PUSH32 0xFFFFFFFFFFFFFFFFFFFFFFFFFFFFFFFFFFFFFFFFFFFFFFFFFFFFFFFFFFFFFFFF DUP3 PUSH2 0x584 JUMP JUMPDEST PUSH2 0x5CB DUP7 DUP4 PUSH2 0x584 JUMP JUMPDEST SWAP6 POP DUP1 NOT DUP5 AND SWAP4 POP DUP1 DUP7 AND DUP5 OR SWAP3 POP POP POP SWAP4 SWAP3 POP POP POP JUMP JUMPDEST PUSH1 0x0 DUP2 SWAP1 POP SWAP2 SWAP1 POP JUMP JUMPDEST PUSH1 0x0 PUSH2 0x608 PUSH2 0x603 PUSH2 0x5FE DUP5 PUSH2 0x20D JUMP JUMPDEST PUSH2 0x5E3 JUMP JUMPDEST PUSH2 0x20D JUMP JUMPDEST SWAP1 POP SWAP2 SWAP1 POP JUMP JUMPDEST PUSH1 0x0 DUP2 SWAP1 POP SWAP2 SWAP1 POP JUMP JUMPDEST PUSH2 0x622 DUP4 PUSH2 0x5ED JUMP JUMPDEST PUSH2 0x636 PUSH2 0x62E DUP3 PUSH2 0x60F JUMP JUMPDEST DUP5 DUP5 SLOAD PUSH2 0x591 JUMP JUMPDEST DUP3 SSTORE POP POP POP POP JUMP JUMPDEST PUSH1 0x0 SWAP1 JUMP JUMPDEST PUSH2 0x64B PUSH2 0x63E JUMP JUMPDEST PUSH2 0x656 DUP2 DUP5 DUP5 PUSH2 0x619 JUMP JUMPDEST POP POP POP JUMP JUMPDEST JUMPDEST DUP2 DUP2 LT ISZERO PUSH2 0x67A JUMPI PUSH2 0x66F PUSH1 0x0 DUP3 PUSH2 0x643 JUMP JUMPDEST PUSH1 0x1 DUP2 ADD SWAP1 POP PUSH2 0x65C JUMP JUMPDEST POP POP JUMP JUMPDEST PUSH1 0x1F DUP3 GT ISZERO PUSH2 0x6BF JUMPI PUSH2 0x690 DUP2 PUSH2 0x55F JUMP JUMPDEST PUSH2 0x699 DUP5 PUSH2 0x574 JUMP JUMPDEST DUP2 ADD PUSH1 0x20 DUP6 LT ISZERO PUSH2 0x6A8 JUMPI DUP2 SWAP1 POP JUMPDEST PUSH2 0x6BC PUSH2 0x6B4 DUP6 PUSH2 0x574 JUMP JUMPDEST DUP4 ADD DUP3 PUSH2 0x65B JUMP JUMPDEST POP POP JUMPDEST POP POP POP JUMP JUMPDEST PUSH1 0x0 DUP3 DUP3 SHR SWAP1 POP SWAP3 SWAP2 POP POP JUMP JUMPDEST PUSH1 0x0 PUSH2 0x6E2 PUSH1 0x0 NOT DUP5 PUSH1 0x8 MUL PUSH2 0x6C4 JUMP JUMPDEST NOT DUP1 DUP4 AND SWAP2 POP POP SWAP3 SWAP2 POP POP JUMP JUMPDEST PUSH1 0x0 PUSH2 0x6FB DUP4 DUP4 PUSH2 0x6D1 JUMP JUMPDEST SWAP2 POP DUP3 PUSH1 0x2 MUL DUP3 OR SWAP1 POP SWAP3 SWAP2 POP POP JUMP JUMPDEST PUSH2 0x714 DUP3 PUSH2 0x2AE JUMP JUMPDEST PUSH8 0xFFFFFFFFFFFFFFFF DUP2 GT ISZERO PUSH2 0x72D JUMPI PUSH2 0x72C PUSH2 0x378 JUMP JUMPDEST JUMPDEST PUSH2 0x737 DUP3 SLOAD PUSH2 0x52E JUMP JUMPDEST PUSH2 0x742 DUP3 DUP3 DUP6 PUSH2 0x67E JUMP JUMPDEST PUSH1 0x0 PUSH1 0x20 SWAP1 POP PUSH1 0x1F DUP4 GT PUSH1 0x1 DUP2 EQ PUSH2 0x775 JUMPI PUSH1 0x0 DUP5 ISZERO PUSH2 0x763 JUMPI DUP3 DUP8 ADD MLOAD SWAP1 POP JUMPDEST PUSH2 0x76D DUP6 DUP3 PUSH2 0x6EF JUMP JUMPDEST DUP7 SSTORE POP PUSH2 0x7D5 JUMP JUMPDEST PUSH1 0x1F NOT DUP5 AND PUSH2 0x783 DUP7 PUSH2 0x55F JUMP JUMPDEST PUSH1 0x0 JUMPDEST DUP3 DUP2 LT ISZERO PUSH2 0x7AB JUMPI DUP5 DUP10 ADD MLOAD DUP3 SSTORE PUSH1 0x1 DUP3 ADD SWAP2 POP PUSH1 0x20 DUP6 ADD SWAP5 POP PUSH1 0x20 DUP2 ADD SWAP1 POP PUSH2 0x786 JUMP JUMPDEST DUP7 DUP4 LT ISZERO PUSH2 0x7C8 JUMPI DUP5 DUP10 ADD MLOAD PUSH2 0x7C4 PUSH1 0x1F DUP10 AND DUP3 PUSH2 0x6D1 JUMP JUMPDEST DUP4 SSTORE POP JUMPDEST PUSH1 0x1 PUSH1 0x2 DUP9 MUL ADD DUP9 SSTORE POP POP POP JUMPDEST POP POP POP POP POP POP JUMP INVALID LOG2 PUSH5 0x6970667358 0x22 SLT KECCAK256 PUSH28 0xCC7FB66A3F0E6DDB4CBD412CF127D9D6CDF66F891D055FEC5F22FDBF DUP12 DUP7 0x4B PUSH5 0x736F6C6343 STOP ADDMOD SLT STOP CALLER "
				},
				"gasEstimates": {
					"creation": {
						"codeDepositCost": "413400",
						"executionCost": "449",
						"totalCost": "413849"
					},
					"external": {
						"addPerson(string,uint256)": "infinite",
						"listOfPeople(uint256)": "infinite",
						"retrieve()": "2415",
						"store(uint256)": "22542"
					}
				},
				"methodIdentifiers": {
					"addPerson(string,uint256)": "6f760f41",
					"listOfPeople(uint256)": "2ebce631",
					"retrieve()": "2e64cec1",
					"store(uint256)": "6057361d"
				}
			},
			"storageLayout": {
				"storage": [
					{
						"astId": 3,
						"contract": "1.5 SimpleStorage  - Memory Storage and Calldata.sol:SimpleStorage",
						"label": "myFavoriteNumber",
						"offset": 0,
						"slot": "0",
						"type": "t_uint256"
					},
					{
						"astId": 12,
						"contract": "1.5 SimpleStorage  - Memory Storage and Calldata.sol:SimpleStorage",
						"label": "listOfPeople",
						"offset": 0,
						"slot": "1",
						"type": "t_array(t_struct(Person)8_storage)dyn_storage"
					}
				],
				"types": {
					"t_array(t_struct(Person)8_storage)dyn_storage": {
						"base": "t_struct(Person)8_storage",
						"encoding": "dynamic_array",
						"label": "struct SimpleStorage.Person[]",
						"numberOfBytes": "32"
					},
					"t_string_storage": {
						"encoding": "bytes",
						"label": "string",
						"numberOfBytes": "32"
					},
					"t_struct(Person)8_storage": {
						"encoding": "inplace",
						"label": "struct SimpleStorage.Person",
						"members": [
							{
								"astId": 5,
								"contract": "1.5 SimpleStorage  - Memory Storage and Calldata.sol:SimpleStorage",
								"label": "favoriteNumber",
								"offset": 0,
								"slot": "0",
								"type": "t_uint256"
							},
							{
								"astId": 7,
								"contract": "1.5 SimpleStorage  - Memory Storage and Calldata.sol:SimpleStorage",
								"label": "name",
								"offset": 0,
								"slot": "1",
								"type": "t_string_storage"
							}
						],
						"numberOfBytes": "64"
					},
					"t_uint256": {
						"encoding": "inplace",
						"label": "uint256",
						"numberOfBytes": "32"
					}
				}
			},
			"userdoc": {
				"kind": "user",
				"methods": {},
				"version": 1
			}
		}
	}
}